:100000000C944D000C946C000C946C000C946C00DF
:100010000C946C000C946C000C946C000C946C00B0
:100020000C946C000C946C000C946C000C946C00A0
:100030000C946C000C94E5000C946C000C946C0017
:100040000C946C000C946C000C946C000C946C0080
:100050000C946C000C946C000C946C000C946C0070
:100060000C946C000C946C000C946C000C946C0060
:100070000C946C000C946C000C946C000C946C0050
:100080000C946C000C946C000C946C008F01A70114
:10009000BF01D701EF0106021D0211241FBECFEFE1
:1000A000D0E4DEBFCDBF11E0A0E0B1E0ECE3F5E0CD
:1000B00000E00BBF02C007900D92A231B107D9F743
:1000C00021E0A2E1B1E001C01D92A931B207E1F740
:1000D0000E946B020C949C020C940000CF93DF935F
:1000E00000D01F92CDB7DEB789837B836A83898175
:1000F0008A3031F48A819B81BC018DE00E946E00C0
:1001000080EC90E0FC018081882F90E0807299273C
:10011000892BB1F386EC90E02981FC01208380E0FB
:1001200090E00F900F900F90DF91CF910895CF93B3
:10013000DF93CDB7DEB781E890E02BE0FC012083B0
:1001400088E890E02DE730E0FC01318320838FE6E2
:1001500090E022E0FC01208384E890E0FC01118221
:10016000108280910E0190910F01A0911001B09129
:1001700011018093130190931401A0931501B09382
:1001800016018FE590E02FE530E0F901208120682D
:10019000FC0120830000DF91CF910895CF93DF937E
:1001A000CDB7DEB781E890E0FC0110820000DF915E
:1001B000CF910895CF93DF93CDB7DEB781E08093E1
:1001C00012010000DF91CF9108951F920F920090CD
:1001D0005F000F92112400905B000F922F933F93CA
:1001E0004F935F936F937F938F939F93AF93BF933F
:1001F000EF93FF93CF93DF93CDB7DEB780911301D9
:1002000090911401A0911501B09116010197A109D7
:10021000B1098093130190931401A0931501B09339
:1002200016018091130190911401A0911501B091D4
:100230001601892B8A2B8B2B91F40E94DA00809176
:100240000E0190910F01A0911001B09111018093C6
:10025000130190931401A0931501B09316010000AF
:10026000DF91CF91FF91EF91BF91AF919F918F91CE
:100270007F916F915F914F913F912F910F900092DD
:100280005B000F9000925F000F901F901895CF9326
:10029000DF9300D000D0CDB7DEB769837A838B833C
:1002A0009C8389819A81AB81BC8180930E0190935C
:1002B0000F01A0931001B093110180910E01909154
:1002C0000F01A0911001B09111018093130190933F
:1002D0001401A0931501B093160100000F900F9028
:1002E0000F900F90DF91CF910895CF93DF93CDB70B
:1002F000DEB78091170190911801CC01A0E0B0E029
:1003000040E050E026E030E0841B950B28173907C9
:1003100008F4AAC08A5B9F4FFC010C94930280E210
:1003200090E0FC018081882F90E081709927892BD3
:1003300039F484E090E0909318018093170199C0FC
:1003400081E090E0909318018093170192C080E2C1
:1003500090E0FC018081882F90E081709927892BA3
:1003600039F484E090E0909318018093170181C0E4
:1003700082E090E090931801809317017AC080E2A8
:1003800090E0FC018081882F90E081709927892B73
:1003900039F484E090E0909318018093170169C0CC
:1003A00083E090E0909318018093170162C080E28F
:1003B00090E0FC018081882F90E081709927892B43
:1003C00039F484E090E0909318018093170151C0B4
:1003D00081E090E090931801809317014AC080E279
:1003E00090E0FC018081882F90E081709927892B13
:1003F00039F485E090E0909318018093170106C0CE
:1004000084E090E0909318018093170180E290E0DF
:10041000FC018081882F90E081709927892B39F425
:1004200086E090E0909318018093170106C085E064
:1004300090E0909318018093170180E290E0FC0116
:100440008081882F90E081709927892B39F486E08C
:1004500090E0909318018093170106C081E090E02E
:1004600090931801809317011092180110921701B0
:100470000000809117019091180182309105A1F040
:100480008330910528F4009709F1019739F018C0DD
:100490008330910579F0079798F419C085E290E0D0
:1004A0002EEFFC01208313C085E290E02DEFFC01CC
:1004B00020830DC085E290E02BEFFC01208307C074
:1004C00085E290E02FEFFC01208301C000000000D6
:1004D000DF91CF910895CF93DF93CDB7DEB784E25C
:1004E00090E02FEFFC01208385E290E0FC01108278
:1004F00081E290E0FC01108282E290E02FEFFC01AB
:1005000020836BE470E080E090E00E9447010E944D
:1005100097000E9475010000809112018823E1F389
:1005200010921201F6CFEE0FFF1F0024001C0BBE2D
:0C0530000790F691E02D0994F894FFCF9D
:10053C0000000002000000006E000000000001003E
:02054C000000AD
:00000001FF
