:100000000C9446000C9465000C9465000C946500FB
:100010000C9465000C9465000C9465000C946500CC
:100020000C9465000C9465000C9465000C946500BC
:100030000C9465000C9465000C9465000C946500AC
:100040000C9465000C9465000C9465000C9465009C
:100050000C9465000C9465000C9465000C9465008C
:100060000C9465000C9465000C9465000C9465007C
:100070000C9465000C9465000C9465000C9465006C
:100080000C9465000C9465000C94650011241FBE4F
:10009000CFEFD0E4DEBFCDBF11E0A0E0B1E0E4E7F8
:1000A000F2E000E00BBF02C007900D92A431B1074F
:1000B000D9F721E0A4E1B1E001C01D92A731B20758
:1000C000E1F70E9416010C9438010C940000CF93C4
:1000D000DF9300D01F92CDB7DEB789837B836A831D
:1000E00089818A3031F48A819B81BC018DE00E9434
:1000F000670080EC90E0FC018081882F90E08072A6
:100100009927892BB1F386EC90E02981FC012083AB
:1001100080E090E00F900F900F90DF91CF910895C5
:10012000CF93DF931F92CDB7DEB780E290E0FC0162
:100130008081882F90E08170992721E0892B09F038
:1001400020E029838091150190911601813091055D
:1001500081F08130910518F0029709F131C0898151
:10016000813099F581E090E090931601809315011C
:100170002CC08981813061F482E090E09093160177
:1001800080931501809114018F5F809314011EC02C
:1001900081E090E0909316018093150117C089814A
:1001A000813039F482E090E090931601809315013C
:1001B0000DC081E090E0909316018093150106C078
:1001C000109216011092150101C0000080911501D6
:1001D000909116018130910569F08130910518F0F8
:1001E0000297F1F01AC088E290E0FC0110821092B0
:1001F000140117C080911401863011F4109214017B
:1002000088E290E020911401222F30E0225F3E4FDF
:10021000F9012081FC01208304C01092140101C067
:10022000000000000F90DF91CF910895CF93DF93EE
:10023000CDB7DEB781E290E0FC01108282E290E06F
:100240002FEFFC01208384E290E02FEFFC0120835C
:1002500085E290E0FC01108287E290E02FEFFC0144
:10026000208388E290E0FC0110820E949000FDCF84
:04027000F894FFCF30
:10027400000000020000000067000000000000030E
:040284000C303F00FB
:00000001FF
