:100000000C9446000C9465000C9465000C946500FB
:100010000C9465000C9465000C9465000C946500CC
:100020000C9465000C9465000C9465000C946500BC
:100030000C9465000C94DE000C9465000C94650033
:100040000C9465000C9465000C9465000C9465009C
:100050000C9465000C9465000C9465000C9465008C
:100060000C9465000C9465000C9465000C9465007C
:100070000C9465000C9465000C9465000C9465006C
:100080000C9465000C9465000C94650011241FBE4F
:10009000CFEFD0E4DEBFCDBF11E0A0E0B1E0E6ECF1
:1000A000F6E000E00BBF02C007900D92A231B1074D
:1000B000D9F721E0A2E1B1E001C01D92A332B2075D
:1000C000E1F70E94CE020C9461030C940000CF93E0
:1000D000DF9300D01F92CDB7DEB789837B836A831D
:1000E00089818A3031F48A819B81BC018DE00E9434
:1000F000670080EC90E0FC018081882F90E08072A6
:100100009927892BB1F386EC90E02981FC012083AB
:1001100080E090E00F900F900F90DF91CF910895C5
:10012000CF93DF93CDB7DEB781E080931501000058
:10013000DF91CF910895CF93DF93CDB7DEB781E8FC
:1001400090E02BE0FC01208388E890E02DE730E090
:10015000FC01318320838FE690E022E0FC012083C4
:1001600084E890E0FC011182108280910E01909150
:100170000F01A0911001B09111018093160190938D
:100180001701A0931801B09319018FE590E02FE5B6
:1001900030E0F90120812068FC0120830000DF911C
:1001A000CF910895CF93DF93CDB7DEB781E890E08C
:1001B000FC0110820000DF91CF9108951F920F92F1
:1001C00000905F000F92112400905B000F922F931C
:1001D0003F934F935F936F937F938F939F93AF93CF
:1001E000BF93EF93FF93CF93DF93CDB7DEB78091AB
:1001F000160190911701A0911801B0911901019772
:10020000A109B1098093160190931701A0931801D9
:10021000B09319018091160190911701A0911801D6
:10022000B0911901892B8A2B8B2B91F40E9490009D
:1002300080910E0190910F01A0911001B0911101D8
:100240008093160190931701A0931801B0931901A0
:100250000000DF91CF91FF91EF91BF91AF919F91FE
:100260008F917F916F915F914F913F912F910F905F
:1002700000925B000F9000925F000F901F90189506
:10028000CF93DF9300D000D0CDB7DEB769837A83F8
:100290008B839C8389819A81AB81BC8180930E0181
:1002A00090930F01A0931001B093110180910E0162
:1002B00090910F01A0911001B0911101809316014E
:1002C00090931701A0931801B093190100000F90AB
:1002D0000F900F900F90DF91CF910895CF93DF9300
:1002E000CDB7DEB780911D0190911E01813091053F
:1002F00081F08130910530F08230910589F00397CB
:10030000B1F01CC081E090E090931E0180931D012C
:100310001AC082E090E090931E0180931D0113C0EB
:1003200083E090E090931E0180931D010CC081E05A
:1003300090E090931E0180931D0105C010921E0154
:1003400010921D01000080911D0190911E018130CD
:10035000910549F08130910590F08230910539F096
:10036000039749F00DC081E08093120109C082E03B
:100370008093120105C084E08093120101C0000047
:100380000000DF91CF910895CF93DF93CDB7DEB713
:1003900080912101909122018130910569F0813095
:1003A000910518F0029779F015C081E090E09093E4
:1003B00022018093210113C082E090E090932201FA
:1003C000809321010CC081E090E090932201809302
:1003D000210105C01092220110922101000080919C
:1003E0002101909122018130910531F081309105F8
:1003F00050F0029721F008C01092130105C081E06F
:100400008093130101C000000000DF91CF91089597
:10041000CF93DF93CDB7DEB780911B0190911C0184
:10042000009719F0019741F00EC081E090E09093A1
:100430001C0180931B010BC081E090E090931C0194
:1004400080931B0104C010921C0110921B0180912B
:100450001B0190911C01009709F1019709F01FC041
:1004600085E290E020911401222F30E02295329510
:10047000307F3227207F3227422F20911301222FF5
:1004800030E0220F331F220F331F220F331F242B84
:1004900030911201232BFC01208301C000000000D9
:1004A000DF91CF910895CF93DF93CDB7DEB78091E1
:1004B0001F01909120018130910569F081309105F3
:1004C00018F0029701F137C081E090E0909320018D
:1004D00080931F0135C080E290E0FC018081882F6D
:1004E00090E081709927892B39F482E090E0909315
:1004F000200180931F0124C081E090E090932001AF
:1005000080931F011DC080E290E0FC018081882F54
:1005100090E081709927892B39F081E090E09093E9
:10052000200180931F010CC082E090E09093200195
:1005300080931F0105C01092200110921F0100003E
:1005400080911F01909120018130910531F081301F
:100550009105F8F0029731F01DC01092140110922D
:100560001A0118C080911A01833020F481E0809331
:10057000140109C080911A01853018F410921401F9
:1005800002C010921A0180911A018F5F80931A01A4
:1005900001C000000000DF91CF910895CF93DF9359
:1005A000CDB7DEB72C970FB6F894DEBF0FBECDBF28
:1005B00084E290E02FEFFC01208385E290E0FC01D3
:1005C000108281E290E0FC01108282E290E02FEF45
:1005D000FC0120838AE290E02FEFFC0120838BE274
:1005E00090E0FC01108219821A821B821C821D82FB
:1005F0001E821F82188684E690E0A0E0B0E0898722
:100600009A87AB87BC876AE070E080E090E00E9448
:1006100040010E949B0010921E0110921D01109239
:1006200022011092210110921C0110921B0189815C
:100630009A81AB81BC818C329140A105B10530F02B
:100640000E946E0119821A821B821C828D819E81FA
:10065000AF81B885883E9340A105B10530F00E9476
:10066000C4011D821E821F8218860E9453020E94AE
:1006700008020000809115018823E1F31092150112
:1006800029813A814B815C8189859A85AB85BC85BE
:10069000820F931FA41FB51F89839A83AB83BC83EA
:1006A0002D813E814F81588589859A85AB85BC8592
:1006B000820F931FA41FB51F8D839E83AF83B887BE
:0606C000B6CFF894FFCF55
:1006C60000000002000000006700000000000100BA
:0206D600000022
:00000001FF
