:100000000C9446000C9465000C9465000C946500FB
:100010000C9465000C9465000C9465000C946500CC
:100020000C9465000C9465000C9465000C946500BC
:100030000C9465000C94DE000C9465000C94650033
:100040000C9465000C9465000C9465000C9465009C
:100050000C9465000C9465000C9465000C9465008C
:100060000C9465000C9465000C9465000C9465007C
:100070000C9465000C9465000C9465000C9465006C
:100080000C9465000C9465000C94650011241FBE4F
:10009000CFEFD0E4DEBFCDBF11E0A0E0B1E0E6EBF2
:1000A000F5E000E00BBF02C007900D92A231B1074E
:1000B000D9F721E0A2E1B1E001C01D92AF31B20752
:1000C000E1F70E9448020C94D9020C940000CF93EF
:1000D000DF9300D01F92CDB7DEB789837B836A831D
:1000E00089818A3031F48A819B81BC018DE00E9434
:1000F000670080EC90E0FC018081882F90E08072A6
:100100009927892BB1F386EC90E02981FC012083AB
:1001100080E090E00F900F900F90DF91CF910895C5
:10012000CF93DF93CDB7DEB781E080931401000059
:10013000DF91CF910895CF93DF93CDB7DEB781E8FC
:1001400090E02BE0FC01208388E890E02DE730E090
:10015000FC01318320838FE690E022E0FC012083C4
:1001600084E890E0FC011182108280910E01909150
:100170000F01A0911001B09111018093150190938E
:100180001601A0931701B09318018FE590E02FE5B9
:1001900030E0F90120812068FC0120830000DF911C
:1001A000CF910895CF93DF93CDB7DEB781E890E08C
:1001B000FC0110820000DF91CF9108951F920F92F1
:1001C00000905F000F92112400905B000F922F931C
:1001D0003F934F935F936F937F938F939F93AF93CF
:1001E000BF93EF93FF93CF93DF93CDB7DEB78091AB
:1001F000150190911601A0911701B0911801019776
:10020000A109B1098093150190931601A0931701DC
:10021000B09318018091150190911601A0911701DA
:10022000B0911801892B8A2B8B2B91F40E9490009E
:1002300080910E0190910F01A0911001B0911101D8
:100240008093150190931601A0931701B0931801A4
:100250000000DF91CF91FF91EF91BF91AF919F91FE
:100260008F917F916F915F914F913F912F910F905F
:1002700000925B000F9000925F000F901F90189506
:10028000CF93DF9300D000D0CDB7DEB769837A83F8
:100290008B839C8389819A81AB81BC8180930E0181
:1002A00090930F01A0931001B093110180910E0162
:1002B00090910F01A0911001B0911101809315014F
:1002C00090931601A0931701B093180100000F90AE
:1002D0000F900F900F90DF91CF910895CF93DF9300
:1002E000CDB7DEB780911B0190911C018130910543
:1002F00081F08130910530F08230910589F00397CB
:10030000B1F01CC081E090E090931C0180931B0130
:100310001AC082E090E090931C0180931B0113C0EF
:1003200083E090E090931C0180931B010CC081E05E
:1003300090E090931C0180931B0105C010921C015A
:1003400010921B01000080911B0190911C018130D3
:10035000910549F08130910590F08230910539F096
:10036000039749F00DC081E08093120109C082E03B
:100370008093120105C084E08093120101C0000047
:100380000000DF91CF910895CF93DF93CDB7DEB713
:1003900080911D0190911E018130910569F081309D
:1003A000910518F0029779F015C081E090E09093E4
:1003B0001E0180931D0113C082E090E090931E0106
:1003C00080931D010CC081E090E090931E0180930A
:1003D0001D0105C010921E0110921D0100008091A8
:1003E0001D0190911E018130910531F08130910500
:1003F00050F0029721F008C01092130105C081E06F
:100400008093130101C000000000DF91CF91089597
:10041000CF93DF93CDB7DEB78091190190911A0188
:10042000009719F0019741F00EC081E090E09093A1
:100430001A01809319010BC081E090E090931A019A
:100440008093190104C010921A0110921901809131
:10045000190190911A010097B1F0019709F014C0A9
:1004600085E290E020911301222F30E0220F331F0C
:10047000220F331F220F331F322F20911201232B03
:10048000FC01208301C000000000DF91CF9108959E
:10049000CF93DF93CDB7DEB72C970FB6F894DEBFBE
:1004A0000FBECDBF84E290E02FEFFC01208385E2F8
:1004B00090E0FC01108281E290E0FC01108282E277
:1004C00090E02FEFFC0120838AE290E02FEFFC0107
:1004D00020838BE290E0FC01108219821A821B8239
:1004E0001C821D821E821F82188684E690E0A0E096
:1004F000B0E089879A87AB87BC876AE070E080E0CC
:1005000090E00E9440010E949B0010921C011092FA
:100510001B0110921E0110921D0110921A011092DF
:10052000190189819A81AB81BC818C329140A105EE
:10053000B10530F00E946E0119821A821B821C8262
:100540008D819E81AF81B885883E9340A105B1051C
:1005500030F00E94C4011D821E821F8218860E94F4
:1005600008020000809114018823E1F31092140125
:1005700029813A814B815C8189859A85AB85BC85CF
:10058000820F931FA41FB51F89839A83AB83BC83FB
:100590002D813E814F81588589859A85AB85BC85A3
:1005A000820F931FA41FB51F8D839E83AF83B887CF
:0605B000B8CFF894FFCF64
:1005B60000000002000000006700000000000100CB
:0205C600000033
:00000001FF
